{
  "contractName": "PaymentSplitterContract",
  "abi": [
    {
      "inputs": [],
      "stateMutability": "payable",
      "type": "constructor",
      "payable": true
    },
    {
      "anonymous": false,
      "inputs": [
        {
          "indexed": false,
          "internalType": "address",
          "name": "account",
          "type": "address"
        },
        {
          "indexed": false,
          "internalType": "uint128",
          "name": "share",
          "type": "uint128"
        }
      ],
      "name": "CompanyAdded",
      "type": "event"
    },
    {
      "anonymous": false,
      "inputs": [
        {
          "indexed": false,
          "internalType": "address",
          "name": "companyAccount",
          "type": "address"
        },
        {
          "indexed": false,
          "internalType": "string",
          "name": "mes",
          "type": "string"
        }
      ],
      "name": "PaymentAlreadyDone",
      "type": "event"
    },
    {
      "anonymous": false,
      "inputs": [
        {
          "indexed": false,
          "internalType": "string",
          "name": "str",
          "type": "string"
        }
      ],
      "name": "PaymentDone",
      "type": "event"
    },
    {
      "anonymous": false,
      "inputs": [
        {
          "indexed": false,
          "internalType": "address",
          "name": "from",
          "type": "address"
        },
        {
          "indexed": false,
          "internalType": "uint128",
          "name": "amount",
          "type": "uint128"
        }
      ],
      "name": "PaymentGet",
      "type": "event"
    },
    {
      "anonymous": false,
      "inputs": [
        {
          "indexed": false,
          "internalType": "address",
          "name": "company",
          "type": "address"
        },
        {
          "indexed": false,
          "internalType": "uint128",
          "name": "sendAmount",
          "type": "uint128"
        }
      ],
      "name": "PaymentSend",
      "type": "event"
    },
    {
      "stateMutability": "payable",
      "type": "receive",
      "payable": true
    },
    {
      "inputs": [
        {
          "internalType": "address",
          "name": "accountAddress",
          "type": "address"
        },
        {
          "internalType": "uint128",
          "name": "shareAmount",
          "type": "uint128"
        }
      ],
      "name": "addCompany",
      "outputs": [],
      "stateMutability": "nonpayable",
      "type": "function"
    },
    {
      "inputs": [],
      "name": "totalPaidAmount",
      "outputs": [
        {
          "internalType": "uint128",
          "name": "",
          "type": "uint128"
        }
      ],
      "stateMutability": "view",
      "type": "function",
      "constant": true
    },
    {
      "inputs": [
        {
          "internalType": "address",
          "name": "companyAddress",
          "type": "address"
        }
      ],
      "name": "alreadyReceived",
      "outputs": [
        {
          "internalType": "uint128",
          "name": "",
          "type": "uint128"
        }
      ],
      "stateMutability": "view",
      "type": "function",
      "constant": true
    },
    {
      "inputs": [
        {
          "internalType": "address",
          "name": "companyAccount",
          "type": "address"
        }
      ],
      "name": "payableAmount",
      "outputs": [
        {
          "internalType": "uint128",
          "name": "",
          "type": "uint128"
        }
      ],
      "stateMutability": "view",
      "type": "function",
      "constant": true
    },
    {
      "inputs": [
        {
          "internalType": "address payable",
          "name": "companyAccount",
          "type": "address"
        }
      ],
      "name": "sendCompanyAmount",
      "outputs": [],
      "stateMutability": "nonpayable",
      "type": "function"
    },
    {
      "inputs": [],
      "name": "totalShareAmounts",
      "outputs": [
        {
          "internalType": "uint128",
          "name": "",
          "type": "uint128"
        }
      ],
      "stateMutability": "view",
      "type": "function",
      "constant": true
    },
    {
      "inputs": [],
      "name": "payAll",
      "outputs": [],
      "stateMutability": "nonpayable",
      "type": "function"
    },
    {
      "inputs": [
        {
          "internalType": "address",
          "name": "_element",
          "type": "address"
        }
      ],
      "name": "removeElement",
      "outputs": [],
      "stateMutability": "nonpayable",
      "type": "function"
    }
  ],
  "bytecode": "0x608060405260008060006101000a8154816fffffffffffffffffffffffffffffffff02191690836fffffffffffffffffffffffffffffffff16021790555060008060106101000a8154816fffffffffffffffffffffffffffffffff02191690836fffffffffffffffffffffffffffffffff160217905550611424806100856000396000f3fe60806040526004361061007f5760003560e01c80637186d8871161004e5780637186d88714610171578063a5ce3eb0146101ae578063ac918485146101d9578063c79e911714610202576100c6565b80632265ae6d146100cb57806327109641146100f45780635806beaf146101315780635f2fb08e14610148576100c6565b366100c6577f017754cad17d751fe82b3504d7c91b3d96de02d5e3a50b333a0306493490d27d6100ad61022d565b346040516100bc929190610ca1565b60405180910390a1005b600080fd5b3480156100d757600080fd5b506100f260048036038101906100ed9190610d0d565b610235565b005b34801561010057600080fd5b5061011b60048036038101906101169190610d66565b6103ee565b6040516101289190610d93565b60405180910390f35b34801561013d57600080fd5b50610146610453565b005b34801561015457600080fd5b5061016f600480360381019061016a9190610d66565b610519565b005b34801561017d57600080fd5b5061019860048036038101906101939190610d66565b610855565b6040516101a59190610d93565b60405180910390f35b3480156101ba57600080fd5b506101c36108ba565b6040516101d09190610d93565b60405180910390f35b3480156101e557600080fd5b5061020060048036038101906101fb9190610dda565b6108df565b005b34801561020e57600080fd5b50610217610b1c565b6040516102249190610d93565b60405180910390f35b600033905090565b600061024082610855565b90506000816fffffffffffffffffffffffffffffffff16141561029a577ffb7085a887c987ec4fc2d4b38a081907c13e4afaf0a3137c27e575e0eb1490018260405161028c9190610ed6565b60405180910390a1506103eb565b80600060108282829054906101000a90046fffffffffffffffffffffffffffffffff166102c79190610f33565b92506101000a8154816fffffffffffffffffffffffffffffffff02191690836fffffffffffffffffffffffffffffffff16021790555080600260008473ffffffffffffffffffffffffffffffffffffffff1673ffffffffffffffffffffffffffffffffffffffff16815260200190815260200160002060008282829054906101000a90046fffffffffffffffffffffffffffffffff160192506101000a8154816fffffffffffffffffffffffffffffffff02191690836fffffffffffffffffffffffffffffffff1602179055506103b082826fffffffffffffffffffffffffffffffff16610b41565b7f67e342873468c5e42a5cbf68154991fe99d0cec8a690ee582b9effbbc3fb161b82826040516103e1929190610f79565b60405180910390a1505b50565b6000600260008373ffffffffffffffffffffffffffffffffffffffff1673ffffffffffffffffffffffffffffffffffffffff16815260200190815260200160002060009054906101000a90046fffffffffffffffffffffffffffffffff169050919050565b60005b600380549050816fffffffffffffffffffffffffffffffff1610156104e1576104ce6003826fffffffffffffffffffffffffffffffff168154811061049e5761049d610fa2565b5b9060005260206000200160009054906101000a900473ffffffffffffffffffffffffffffffffffffffff16610235565b80806104d990610fd1565b915050610456565b507f5c330c20847b64d548e7e44ec6f9d7f414005e4e46747253b35b6d25064e03bb60405161050f90611056565b60405180910390a1565b60005b600380549050811015610851578173ffffffffffffffffffffffffffffffffffffffff166003828154811061055457610553610fa2565b5b9060005260206000200160009054906101000a900473ffffffffffffffffffffffffffffffffffffffff1673ffffffffffffffffffffffffffffffffffffffff16141561083e57600360016003805490506105af9190611080565b815481106105c0576105bf610fa2565b5b9060005260206000200160009054906101000a900473ffffffffffffffffffffffffffffffffffffffff16600382815481106105ff576105fe610fa2565b5b9060005260206000200160006101000a81548173ffffffffffffffffffffffffffffffffffffffff021916908373ffffffffffffffffffffffffffffffffffffffff1602179055506003805480610659576106586110b4565b5b6001900381819060005260206000200160006101000a81549073ffffffffffffffffffffffffffffffffffffffff02191690559055600160008373ffffffffffffffffffffffffffffffffffffffff1673ffffffffffffffffffffffffffffffffffffffff16815260200190815260200160002060009054906101000a90046fffffffffffffffffffffffffffffffff166000808282829054906101000a90046fffffffffffffffffffffffffffffffff1661071591906110e3565b92506101000a8154816fffffffffffffffffffffffffffffffff02191690836fffffffffffffffffffffffffffffffff1602179055506000600160008473ffffffffffffffffffffffffffffffffffffffff1673ffffffffffffffffffffffffffffffffffffffff16815260200190815260200160002060006101000a8154816fffffffffffffffffffffffffffffffff02191690836fffffffffffffffffffffffffffffffff1602179055506000600260008473ffffffffffffffffffffffffffffffffffffffff1673ffffffffffffffffffffffffffffffffffffffff16815260200190815260200160002060006101000a8154816fffffffffffffffffffffffffffffffff02191690836fffffffffffffffffffffffffffffffff160217905550610851565b808061084990611117565b91505061051c565b5050565b6000600160008373ffffffffffffffffffffffffffffffffffffffff1673ffffffffffffffffffffffffffffffffffffffff16815260200190815260200160002060009054906101000a90046fffffffffffffffffffffffffffffffff169050919050565b60008060109054906101000a90046fffffffffffffffffffffffffffffffff16905090565b600073ffffffffffffffffffffffffffffffffffffffff168273ffffffffffffffffffffffffffffffffffffffff16141561094f576040517f08c379a0000000000000000000000000000000000000000000000000000000008152600401610946906111d2565b60405180910390fd5b6000816fffffffffffffffffffffffffffffffff16116109a4576040517f08c379a000000000000000000000000000000000000000000000000000000000815260040161099b90611264565b60405180910390fd5b80600160008473ffffffffffffffffffffffffffffffffffffffff1673ffffffffffffffffffffffffffffffffffffffff16815260200190815260200160002060006101000a8154816fffffffffffffffffffffffffffffffff02191690836fffffffffffffffffffffffffffffffff1602179055506003829080600181540180825580915050600190039060005260206000200160009091909190916101000a81548173ffffffffffffffffffffffffffffffffffffffff021916908373ffffffffffffffffffffffffffffffffffffffff160217905550806000808282829054906101000a90046fffffffffffffffffffffffffffffffff16610aa99190610f33565b92506101000a8154816fffffffffffffffffffffffffffffffff02191690836fffffffffffffffffffffffffffffffff1602179055507f12675d64172d35101b6badb83ebbef65d3bcc962577b4c2710064a303b3aa53e8282604051610b10929190610ca1565b60405180910390a15050565b60008060009054906101000a90046fffffffffffffffffffffffffffffffff16905090565b80471015610b84576040517f08c379a0000000000000000000000000000000000000000000000000000000008152600401610b7b906112f6565b60405180910390fd5b60008273ffffffffffffffffffffffffffffffffffffffff1682604051610baa90611347565b60006040518083038185875af1925050503d8060008114610be7576040519150601f19603f3d011682016040523d82523d6000602084013e610bec565b606091505b5050905080610c30576040517f08c379a0000000000000000000000000000000000000000000000000000000008152600401610c27906113ce565b60405180910390fd5b505050565b600073ffffffffffffffffffffffffffffffffffffffff82169050919050565b6000610c6082610c35565b9050919050565b610c7081610c55565b82525050565b60006fffffffffffffffffffffffffffffffff82169050919050565b610c9b81610c76565b82525050565b6000604082019050610cb66000830185610c67565b610cc36020830184610c92565b9392505050565b600080fd5b6000610cda82610c35565b9050919050565b610cea81610ccf565b8114610cf557600080fd5b50565b600081359050610d0781610ce1565b92915050565b600060208284031215610d2357610d22610cca565b5b6000610d3184828501610cf8565b91505092915050565b610d4381610c55565b8114610d4e57600080fd5b50565b600081359050610d6081610d3a565b92915050565b600060208284031215610d7c57610d7b610cca565b5b6000610d8a84828501610d51565b91505092915050565b6000602082019050610da86000830184610c92565b92915050565b610db781610c76565b8114610dc257600080fd5b50565b600081359050610dd481610dae565b92915050565b60008060408385031215610df157610df0610cca565b5b6000610dff85828601610d51565b9250506020610e1085828601610dc5565b9150509250929050565b6000819050919050565b6000610e3f610e3a610e3584610c35565b610e1a565b610c35565b9050919050565b6000610e5182610e24565b9050919050565b6000610e6382610e46565b9050919050565b610e7381610e58565b82525050565b600082825260208201905092915050565b7f5061796d656e7420616c726561647920646f6e65000000000000000000000000600082015250565b6000610ec0601483610e79565b9150610ecb82610e8a565b602082019050919050565b6000604082019050610eeb6000830184610e6a565b8181036020830152610efc81610eb3565b905092915050565b7f4e487b7100000000000000000000000000000000000000000000000000000000600052601160045260246000fd5b6000610f3e82610c76565b9150610f4983610c76565b9250826fffffffffffffffffffffffffffffffff03821115610f6e57610f6d610f04565b5b828201905092915050565b6000604082019050610f8e6000830185610e6a565b610f9b6020830184610c92565b9392505050565b7f4e487b7100000000000000000000000000000000000000000000000000000000600052603260045260246000fd5b6000610fdc82610c76565b91506fffffffffffffffffffffffffffffffff821415610fff57610ffe610f04565b5b600182019050919050565b7f5061796d656e7420746f20616c6c20636f6d70616e69657320646f6e652e0000600082015250565b6000611040601e83610e79565b915061104b8261100a565b602082019050919050565b6000602082019050818103600083015261106f81611033565b9050919050565b6000819050919050565b600061108b82611076565b915061109683611076565b9250828210156110a9576110a8610f04565b5b828203905092915050565b7f4e487b7100000000000000000000000000000000000000000000000000000000600052603160045260246000fd5b60006110ee82610c76565b91506110f983610c76565b92508282101561110c5761110b610f04565b5b828203905092915050565b600061112282611076565b91507fffffffffffffffffffffffffffffffffffffffffffffffffffffffffffffffff82141561115557611154610f04565b5b600182019050919050565b7f5061796d656e7453706c6974746572436f6e7472616374203a20506c6561736560008201527f20656e746572206e6f6e207a65726f20616464726573732e0000000000000000602082015250565b60006111bc603883610e79565b91506111c782611160565b604082019050919050565b600060208201905081810360008301526111eb816111af565b9050919050565b7f5061796d656e7453706c6974746572436f6e7472616374203a2020506c65617360008201527f6520656e74657220706f73697469766520736861726520616d6f756e74000000602082015250565b600061124e603d83610e79565b9150611259826111f2565b604082019050919050565b6000602082019050818103600083015261127d81611241565b9050919050565b7f416464726573733a20496e73756666696369656e742062616c616e636520696e60008201527f206163636f756e74000000000000000000000000000000000000000000000000602082015250565b60006112e0602883610e79565b91506112eb82611284565b604082019050919050565b6000602082019050818103600083015261130f816112d3565b9050919050565b600081905092915050565b50565b6000611331600083611316565b915061133c82611321565b600082019050919050565b600061135282611324565b9150819050919050565b7f416464726573733a2043616e27742073656e6420616d6f756e7420746f20757360008201527f6572000000000000000000000000000000000000000000000000000000000000602082015250565b60006113b8602283610e79565b91506113c38261135c565b604082019050919050565b600060208201905081810360008301526113e7816113ab565b905091905056fea264697066735822122002c07740aa625eb2b870e37ade4b0e2e83b73c351e14eea8c155167c24edbc6264736f6c634300080a0033",
  "immutableReferences": {},
  "source": "// SPDX-License-Identifier: MIT\n\npragma solidity ^0.8.0;\n\nimport \"./userContext.sol\";\nimport \"./userAddress.sol\";\n\ncontract PaymentSplitterContract is UserContext {\n    /* \n        Step - 1\n        Define some important variables \n    */\n    // Define total amount involved in Payment-Splitter\n    uint128 totalShareAmount;\n\n    // Define total payment done using Payment-Splitter\n    uint128 totalPaid;\n\n    // Define companyShare map for mapping address to uint128 (for every company account address map to some share )\n    mapping(address => uint128) companyShare;\n\n    // Define companyReceivedAmount for find payment received by company (initially it is 0)\n    mapping(address => uint128) companyReceivedAmount;\n\n    // Define array for store all company address\n    address[] private companies;\n\n    /* \n        Step - 2 \n        Define functions and event for add company in contract \n    */\n    // Define event for add company\n    event CompanyAdded(address account, uint128 share);\n\n    // Define function for add company which are involved with our contract\n    function addCompany(address accountAddress, uint128 shareAmount) public {\n        require(\n            accountAddress != address(0),\n            \"PaymentSplitterContract : Please enter non zero address.\"\n        );\n        require(\n            shareAmount > 0,\n            \"PaymentSplitterContract :  Please enter positive share amount\"\n        );\n\n        companyShare[accountAddress] = shareAmount;\n        companies.push(accountAddress);\n        totalShareAmount += shareAmount;\n        emit CompanyAdded(accountAddress, shareAmount);\n    }\n\n    // // Define constructor for contract\n    constructor() public payable {\n        totalShareAmount = 0;\n        totalPaid = 0;\n    }\n\n    /* \n        Step - 3\n        Define functions for send payment to company \n    */\n    // Define function for find total paid amount by this contract\n    function totalPaidAmount() public view returns (uint128) {\n        return totalPaid;\n    }\n\n    // Define function for find amount already received by company\n    function alreadyReceived(\n        address companyAddress\n    ) public view returns (uint128) {\n        return companyReceivedAmount[companyAddress];\n    }\n\n    // Define function for find total amount company can get\n    function payableAmount(\n        address companyAccount\n    ) public view returns (uint128) {\n        return companyShare[companyAccount];\n    }\n\n    // Define event for send payment\n    event PaymentSend(address company, uint128 sendAmount);\n    event PaymentAlreadyDone(address companyAccount, string mes);\n\n    // Define function for send amount to company\n    function sendCompanyAmount(address payable companyAccount) public virtual {\n        uint128 possiblePayment = payableAmount(companyAccount);\n\n        if (possiblePayment == 0) {\n            emit PaymentAlreadyDone(companyAccount, \"Payment already done\");\n            return;\n        }\n\n        totalPaid += possiblePayment;\n        unchecked {\n            companyReceivedAmount[companyAccount] += possiblePayment;\n        }\n\n        UserAddress.sendAmount(companyAccount, possiblePayment);\n        // removeElement(companyAccount);\n        emit PaymentSend(companyAccount, possiblePayment);\n    }\n\n    // Define event for user received amount\n    event PaymentGet(address from, uint128 amount);\n\n    // Define function for show event when user receive amount\n    receive() external payable virtual {\n        emit PaymentGet(msgSenderAddress(), uint128(msg.value));\n    }\n\n    // Define function for find total shares of companies\n    function totalShareAmounts() public view returns (uint128) {\n        return totalShareAmount;\n    }\n\n    /* \n        Step - 3\n        Define event and function for final payment to all companies \n    */\n    // Define event for payment done to all companies\n    event PaymentDone(string str);\n\n    // Define function for send amount to all companies\n    function payAll() public {\n        for (uint128 i = 0; i < companies.length; i++) {\n            sendCompanyAmount(payable(companies[i]));\n        }\n        emit PaymentDone(\"Payment to all companies done.\");\n    }\n\n    /*\n\n        Step-4\n        Define function to remove company from contract\n\n    */\n\n    function removeElement(address _element) public {\n        for (uint256 i; i < companies.length; i++) {\n            if (companies[i] == _element) {\n                companies[i] = companies[companies.length - 1];\n                companies.pop();\n                totalShareAmount -= companyShare[_element];\n                companyShare[_element] = 0;\n                companyReceivedAmount[_element] = 0;\n                break;\n            }\n        }\n    }\n}\n",
  "sourcePath": "/Users/apple/Documents/Jatin/DAIICT-Sem6/SC402 - Elements of Cryptography/GitHub/PaymentSplitter-Using-SmartContract/contracts/PaymentSplitterContract.sol",
  "compiler": {
    "name": "solc",
    "version": "0.8.10+commit.fc410830.Emscripten.clang"
  },
  "schemaVersion": "3.4.13",
  "updatedAt": "2023-04-29T17:56:57.652Z",
  "networkType": "ethereum",
  "devdoc": {
    "kind": "dev",
    "methods": {},
    "version": 1
  },
  "userdoc": {
    "kind": "user",
    "methods": {},
    "version": 1
  }
}