{
  "contractName": "PaymentSplitterContract",
  "abi": [
    {
      "inputs": [],
      "stateMutability": "payable",
      "type": "constructor",
      "payable": true
    },
    {
      "anonymous": false,
      "inputs": [
        {
          "indexed": false,
          "internalType": "address",
          "name": "account",
          "type": "address"
        },
        {
          "indexed": false,
          "internalType": "uint128",
          "name": "share",
          "type": "uint128"
        }
      ],
      "name": "CompanyAdded",
      "type": "event"
    },
    {
      "anonymous": false,
      "inputs": [
        {
          "indexed": false,
          "internalType": "address",
          "name": "companyAccount",
          "type": "address"
        },
        {
          "indexed": false,
          "internalType": "string",
          "name": "mes",
          "type": "string"
        }
      ],
      "name": "PaymentAlreadyDone",
      "type": "event"
    },
    {
      "anonymous": false,
      "inputs": [
        {
          "indexed": false,
          "internalType": "string",
          "name": "str",
          "type": "string"
        }
      ],
      "name": "PaymentDone",
      "type": "event"
    },
    {
      "anonymous": false,
      "inputs": [
        {
          "indexed": false,
          "internalType": "address",
          "name": "from",
          "type": "address"
        },
        {
          "indexed": false,
          "internalType": "uint128",
          "name": "amount",
          "type": "uint128"
        }
      ],
      "name": "PaymentGet",
      "type": "event"
    },
    {
      "anonymous": false,
      "inputs": [
        {
          "indexed": false,
          "internalType": "address",
          "name": "company",
          "type": "address"
        },
        {
          "indexed": false,
          "internalType": "uint128",
          "name": "sendAmount",
          "type": "uint128"
        }
      ],
      "name": "PaymentSend",
      "type": "event"
    },
    {
      "stateMutability": "payable",
      "type": "receive",
      "payable": true
    },
    {
      "inputs": [
        {
          "internalType": "address",
          "name": "accountAddress",
          "type": "address"
        },
        {
          "internalType": "uint128",
          "name": "shareAmount",
          "type": "uint128"
        }
      ],
      "name": "addCompany",
      "outputs": [],
      "stateMutability": "nonpayable",
      "type": "function"
    },
    {
      "inputs": [],
      "name": "totalPaidAmount",
      "outputs": [
        {
          "internalType": "uint128",
          "name": "",
          "type": "uint128"
        }
      ],
      "stateMutability": "view",
      "type": "function",
      "constant": true
    },
    {
      "inputs": [
        {
          "internalType": "address",
          "name": "companyAddress",
          "type": "address"
        }
      ],
      "name": "alreadyReceived",
      "outputs": [
        {
          "internalType": "uint128",
          "name": "",
          "type": "uint128"
        }
      ],
      "stateMutability": "view",
      "type": "function",
      "constant": true
    },
    {
      "inputs": [
        {
          "internalType": "address",
          "name": "companyAccount",
          "type": "address"
        }
      ],
      "name": "payableAmount",
      "outputs": [
        {
          "internalType": "uint128",
          "name": "",
          "type": "uint128"
        }
      ],
      "stateMutability": "view",
      "type": "function",
      "constant": true
    },
    {
      "inputs": [
        {
          "internalType": "address payable",
          "name": "companyAccount",
          "type": "address"
        }
      ],
      "name": "sendCompanyAmount",
      "outputs": [],
      "stateMutability": "nonpayable",
      "type": "function"
    },
    {
      "inputs": [],
      "name": "totalShareAmounts",
      "outputs": [
        {
          "internalType": "uint128",
          "name": "",
          "type": "uint128"
        }
      ],
      "stateMutability": "view",
      "type": "function",
      "constant": true
    },
    {
      "inputs": [],
      "name": "payAll",
      "outputs": [],
      "stateMutability": "nonpayable",
      "type": "function"
    }
  ],
  "bytecode": "0x608060405260008060006101000a8154816fffffffffffffffffffffffffffffffff02191690836fffffffffffffffffffffffffffffffff16021790555060008060106101000a8154816fffffffffffffffffffffffffffffffff02191690836fffffffffffffffffffffffffffffffff1602179055506111c9806100856000396000f3fe6080604052600436106100745760003560e01c80637186d8871161004e5780637186d8871461013d578063a5ce3eb01461017a578063ac918485146101a5578063c79e9117146101ce576100bb565b80632265ae6d146100c057806327109641146100e95780635806beaf14610126576100bb565b366100bb577f017754cad17d751fe82b3504d7c91b3d96de02d5e3a50b333a0306493490d27d6100a26101f9565b346040516100b1929190610a78565b60405180910390a1005b600080fd5b3480156100cc57600080fd5b506100e760048036038101906100e29190610ae4565b610201565b005b3480156100f557600080fd5b50610110600480360381019061010b9190610b3d565b610451565b60405161011d9190610b6a565b60405180910390f35b34801561013257600080fd5b5061013b6104b6565b005b34801561014957600080fd5b50610164600480360381019061015f9190610b3d565b61057c565b6040516101719190610b6a565b60405180910390f35b34801561018657600080fd5b5061018f6105e1565b60405161019c9190610b6a565b60405180910390f35b3480156101b157600080fd5b506101cc60048036038101906101c79190610bb1565b610606565b005b3480156101da57600080fd5b506101e36108f3565b6040516101f09190610b6a565b60405180910390f35b600033905090565b600061020c8261057c565b90506000816fffffffffffffffffffffffffffffffff161415610266577ffb7085a887c987ec4fc2d4b38a081907c13e4afaf0a3137c27e575e0eb149001826040516102589190610cad565b60405180910390a15061044e565b80600060108282829054906101000a90046fffffffffffffffffffffffffffffffff166102939190610d0a565b92506101000a8154816fffffffffffffffffffffffffffffffff02191690836fffffffffffffffffffffffffffffffff16021790555080600260008473ffffffffffffffffffffffffffffffffffffffff1673ffffffffffffffffffffffffffffffffffffffff16815260200190815260200160002060008282829054906101000a90046fffffffffffffffffffffffffffffffff160192506101000a8154816fffffffffffffffffffffffffffffffff02191690836fffffffffffffffffffffffffffffffff16021790555080600160008473ffffffffffffffffffffffffffffffffffffffff1673ffffffffffffffffffffffffffffffffffffffff16815260200190815260200160002060008282829054906101000a90046fffffffffffffffffffffffffffffffff160392506101000a8154816fffffffffffffffffffffffffffffffff02191690836fffffffffffffffffffffffffffffffff16021790555061041382826fffffffffffffffffffffffffffffffff16610918565b7f67e342873468c5e42a5cbf68154991fe99d0cec8a690ee582b9effbbc3fb161b8282604051610444929190610d50565b60405180910390a1505b50565b6000600260008373ffffffffffffffffffffffffffffffffffffffff1673ffffffffffffffffffffffffffffffffffffffff16815260200190815260200160002060009054906101000a90046fffffffffffffffffffffffffffffffff169050919050565b60005b600380549050816fffffffffffffffffffffffffffffffff161015610544576105316003826fffffffffffffffffffffffffffffffff168154811061050157610500610d79565b5b9060005260206000200160009054906101000a900473ffffffffffffffffffffffffffffffffffffffff16610201565b808061053c90610da8565b9150506104b9565b507f5c330c20847b64d548e7e44ec6f9d7f414005e4e46747253b35b6d25064e03bb60405161057290610e2d565b60405180910390a1565b6000600160008373ffffffffffffffffffffffffffffffffffffffff1673ffffffffffffffffffffffffffffffffffffffff16815260200190815260200160002060009054906101000a90046fffffffffffffffffffffffffffffffff169050919050565b60008060109054906101000a90046fffffffffffffffffffffffffffffffff16905090565b600073ffffffffffffffffffffffffffffffffffffffff168273ffffffffffffffffffffffffffffffffffffffff161415610676576040517f08c379a000000000000000000000000000000000000000000000000000000000815260040161066d90610ebf565b60405180910390fd5b6000600160008473ffffffffffffffffffffffffffffffffffffffff1673ffffffffffffffffffffffffffffffffffffffff16815260200190815260200160002060009054906101000a90046fffffffffffffffffffffffffffffffff166fffffffffffffffffffffffffffffffff1614610726576040517f08c379a000000000000000000000000000000000000000000000000000000000815260040161071d90610f77565b60405180910390fd5b6000816fffffffffffffffffffffffffffffffff161161077b576040517f08c379a000000000000000000000000000000000000000000000000000000000815260040161077290611009565b60405180910390fd5b80600160008473ffffffffffffffffffffffffffffffffffffffff1673ffffffffffffffffffffffffffffffffffffffff16815260200190815260200160002060006101000a8154816fffffffffffffffffffffffffffffffff02191690836fffffffffffffffffffffffffffffffff1602179055506003829080600181540180825580915050600190039060005260206000200160009091909190916101000a81548173ffffffffffffffffffffffffffffffffffffffff021916908373ffffffffffffffffffffffffffffffffffffffff160217905550806000808282829054906101000a90046fffffffffffffffffffffffffffffffff166108809190610d0a565b92506101000a8154816fffffffffffffffffffffffffffffffff02191690836fffffffffffffffffffffffffffffffff1602179055507f12675d64172d35101b6badb83ebbef65d3bcc962577b4c2710064a303b3aa53e82826040516108e7929190610a78565b60405180910390a15050565b60008060009054906101000a90046fffffffffffffffffffffffffffffffff16905090565b8047101561095b576040517f08c379a00000000000000000000000000000000000000000000000000000000081526004016109529061109b565b60405180910390fd5b60008273ffffffffffffffffffffffffffffffffffffffff1682604051610981906110ec565b60006040518083038185875af1925050503d80600081146109be576040519150601f19603f3d011682016040523d82523d6000602084013e6109c3565b606091505b5050905080610a07576040517f08c379a00000000000000000000000000000000000000000000000000000000081526004016109fe90611173565b60405180910390fd5b505050565b600073ffffffffffffffffffffffffffffffffffffffff82169050919050565b6000610a3782610a0c565b9050919050565b610a4781610a2c565b82525050565b60006fffffffffffffffffffffffffffffffff82169050919050565b610a7281610a4d565b82525050565b6000604082019050610a8d6000830185610a3e565b610a9a6020830184610a69565b9392505050565b600080fd5b6000610ab182610a0c565b9050919050565b610ac181610aa6565b8114610acc57600080fd5b50565b600081359050610ade81610ab8565b92915050565b600060208284031215610afa57610af9610aa1565b5b6000610b0884828501610acf565b91505092915050565b610b1a81610a2c565b8114610b2557600080fd5b50565b600081359050610b3781610b11565b92915050565b600060208284031215610b5357610b52610aa1565b5b6000610b6184828501610b28565b91505092915050565b6000602082019050610b7f6000830184610a69565b92915050565b610b8e81610a4d565b8114610b9957600080fd5b50565b600081359050610bab81610b85565b92915050565b60008060408385031215610bc857610bc7610aa1565b5b6000610bd685828601610b28565b9250506020610be785828601610b9c565b9150509250929050565b6000819050919050565b6000610c16610c11610c0c84610a0c565b610bf1565b610a0c565b9050919050565b6000610c2882610bfb565b9050919050565b6000610c3a82610c1d565b9050919050565b610c4a81610c2f565b82525050565b600082825260208201905092915050565b7f5061796d656e7420616c726561647920646f6e65000000000000000000000000600082015250565b6000610c97601483610c50565b9150610ca282610c61565b602082019050919050565b6000604082019050610cc26000830184610c41565b8181036020830152610cd381610c8a565b905092915050565b7f4e487b7100000000000000000000000000000000000000000000000000000000600052601160045260246000fd5b6000610d1582610a4d565b9150610d2083610a4d565b9250826fffffffffffffffffffffffffffffffff03821115610d4557610d44610cdb565b5b828201905092915050565b6000604082019050610d656000830185610c41565b610d726020830184610a69565b9392505050565b7f4e487b7100000000000000000000000000000000000000000000000000000000600052603260045260246000fd5b6000610db382610a4d565b91506fffffffffffffffffffffffffffffffff821415610dd657610dd5610cdb565b5b600182019050919050565b7f5061796d656e7420746f20616c6c20636f6d70616e69657320646f6e652e0000600082015250565b6000610e17601e83610c50565b9150610e2282610de1565b602082019050919050565b60006020820190508181036000830152610e4681610e0a565b9050919050565b7f5061796d656e7453706c6974746572436f6e7472616374203a20506c6561736560008201527f20656e746572206e6f6e207a65726f20616464726573732e0000000000000000602082015250565b6000610ea9603883610c50565b9150610eb482610e4d565b604082019050919050565b60006020820190508181036000830152610ed881610e9c565b9050919050565b7f5061796d656e7453706c6974746572436f6e7472616374203a2054686973206360008201527f6f6d70616e7920616c726561647920696e766f6c766564207769746820636f6e60208201527f74726163742e0000000000000000000000000000000000000000000000000000604082015250565b6000610f61604683610c50565b9150610f6c82610edf565b606082019050919050565b60006020820190508181036000830152610f9081610f54565b9050919050565b7f5061796d656e7453706c6974746572436f6e7472616374203a2020506c65617360008201527f6520656e74657220706f73697469766520736861726520616d6f756e74000000602082015250565b6000610ff3603d83610c50565b9150610ffe82610f97565b604082019050919050565b6000602082019050818103600083015261102281610fe6565b9050919050565b7f416464726573733a20496e73756666696369656e742062616c616e636520696e60008201527f206163636f756e74000000000000000000000000000000000000000000000000602082015250565b6000611085602883610c50565b915061109082611029565b604082019050919050565b600060208201905081810360008301526110b481611078565b9050919050565b600081905092915050565b50565b60006110d66000836110bb565b91506110e1826110c6565b600082019050919050565b60006110f7826110c9565b9150819050919050565b7f416464726573733a2043616e27742073656e6420616d6f756e7420746f20757360008201527f6572000000000000000000000000000000000000000000000000000000000000602082015250565b600061115d602283610c50565b915061116882611101565b604082019050919050565b6000602082019050818103600083015261118c81611150565b905091905056fea26469706673582212209790e21742d08062a9297646c180ba43d088a96a39123b07feb039ab3715d94264736f6c634300080a0033",
  "immutableReferences": {},
  "source": "// SPDX-License-Identifier: MIT\n\npragma solidity ^0.8.0;\n\nimport \"./userContext.sol\";\nimport \"./userAddress.sol\";\n\ncontract PaymentSplitterContract is UserContext {\n    /* \n        Step - 1\n        Define some important variables \n    */\n    // Define total amount involved in Payment-Splitter\n    uint128 totalShareAmount;\n\n    // Define total payment done using Payment-Splitter\n    uint128 totalPaid;\n\n    // Define companyShare map for mapping address to uint128 (for every company account address map to some share )\n    mapping(address => uint128) companyShare;\n\n    // Define companyReceivedAmount for find payment received by company (initially it is 0)\n    mapping(address => uint128) companyReceivedAmount;\n\n    // Define array for store all company address\n    address[] private companies;\n\n    /* \n        Step - 2 \n        Define functions and event for add company in contract \n    */\n    // Define event for add company\n    event CompanyAdded(address account, uint128 share);\n\n    // Define function for add company which are involved with our contract\n    function addCompany(address accountAddress, uint128 shareAmount) public {\n        require(\n            accountAddress != address(0),\n            \"PaymentSplitterContract : Please enter non zero address.\"\n        );\n        require(\n            companyShare[accountAddress] == 0,\n            \"PaymentSplitterContract : This company already involved with contract.\"\n        );\n        require(\n            shareAmount > 0,\n            \"PaymentSplitterContract :  Please enter positive share amount\"\n        );\n\n        companyShare[accountAddress] = shareAmount;\n        companies.push(accountAddress);\n        totalShareAmount += shareAmount;\n        emit CompanyAdded(accountAddress, shareAmount);\n    }\n\n    // // Define constructor for contract\n    constructor() public payable {\n        totalShareAmount = 0;\n        totalPaid = 0;\n    }\n\n    /* \n        Step - 3\n        Define functions for send payment to company \n    */\n    // Define function for find total paid amount by this contract\n    function totalPaidAmount() public view returns (uint128) {\n        return totalPaid;\n    }\n\n\n    // Define function for find amount already received by company\n    function alreadyReceived(address companyAddress)\n        public\n        view\n        returns (uint128)\n    {\n        return companyReceivedAmount[companyAddress];\n    }\n\n    // Define function for find total amount company can get\n    function payableAmount(address companyAccount)\n        public\n        view\n        returns (uint128)\n    {\n        return\n            companyShare[companyAccount];\n    }\n\n    // Define event for send payment\n    event PaymentSend(address company, uint128 sendAmount);\n    event PaymentAlreadyDone(address companyAccount, string mes);\n\n    // Define function for send amount to company\n    function sendCompanyAmount(address payable companyAccount) public virtual {\n\n        uint128 possiblePayment = payableAmount(companyAccount);\n\n        if(possiblePayment == 0){\n            emit PaymentAlreadyDone(companyAccount, \"Payment already done\");\n            return;\n        }\n\n        totalPaid += possiblePayment;\n        unchecked {\n            companyReceivedAmount[companyAccount] += possiblePayment;\n            companyShare[companyAccount] -= possiblePayment;\n        }\n\n        UserAddress.sendAmount(companyAccount, possiblePayment);\n        emit PaymentSend(companyAccount, possiblePayment);\n    }\n\n    // Define event for user received amount\n    event PaymentGet(address from, uint128 amount);\n\n    // Define function for show event when user receive amount\n    receive() external payable virtual {\n        emit PaymentGet(msgSenderAddress(), uint128(msg.value));\n    }\n\n    // Define function for find total shares of companies\n    function totalShareAmounts() public view returns (uint128) {\n        return totalShareAmount;\n    }\n\n    /* \n        Step - 3\n        Define event and function for final payment to all companies \n    */\n    // Define event for payment done to all companies\n    event PaymentDone(string str);\n\n    // Define function for send amount to all companies\n    function payAll() public {\n        for (uint128 i = 0; i < companies.length; i++) {\n            sendCompanyAmount(payable(companies[i]));\n        }\n        emit PaymentDone(\"Payment to all companies done.\");\n    }\n}\n",
  "sourcePath": "/Users/apple/Documents/Jatin/DAIICT-Sem6/SC402 - Elements of Cryptography/Final_Project/contracts/PaymentSplitterContract.sol",
  "compiler": {
    "name": "solc",
    "version": "0.8.10+commit.fc410830.Emscripten.clang"
  },
  "schemaVersion": "3.4.13",
  "updatedAt": "2023-04-24T20:00:24.045Z",
  "networkType": "ethereum",
  "devdoc": {
    "kind": "dev",
    "methods": {},
    "version": 1
  },
  "userdoc": {
    "kind": "user",
    "methods": {},
    "version": 1
  }
}