{
  "contractName": "PaymentSplitterContract",
  "abi": [
    {
      "inputs": [],
      "stateMutability": "payable",
      "type": "constructor",
      "payable": true
    },
    {
      "anonymous": false,
      "inputs": [
        {
          "indexed": false,
          "internalType": "address",
          "name": "account",
          "type": "address"
        },
        {
          "indexed": false,
          "internalType": "uint128",
          "name": "share",
          "type": "uint128"
        }
      ],
      "name": "CompanyAdded",
      "type": "event"
    },
    {
      "anonymous": false,
      "inputs": [
        {
          "indexed": false,
          "internalType": "address",
          "name": "companyAccount",
          "type": "address"
        },
        {
          "indexed": false,
          "internalType": "string",
          "name": "mes",
          "type": "string"
        }
      ],
      "name": "PaymentAlreadyDone",
      "type": "event"
    },
    {
      "anonymous": false,
      "inputs": [
        {
          "indexed": false,
          "internalType": "string",
          "name": "str",
          "type": "string"
        }
      ],
      "name": "PaymentDone",
      "type": "event"
    },
    {
      "anonymous": false,
      "inputs": [
        {
          "indexed": false,
          "internalType": "address",
          "name": "from",
          "type": "address"
        },
        {
          "indexed": false,
          "internalType": "uint128",
          "name": "amount",
          "type": "uint128"
        }
      ],
      "name": "PaymentGet",
      "type": "event"
    },
    {
      "anonymous": false,
      "inputs": [
        {
          "indexed": false,
          "internalType": "address",
          "name": "company",
          "type": "address"
        },
        {
          "indexed": false,
          "internalType": "uint128",
          "name": "sendAmount",
          "type": "uint128"
        }
      ],
      "name": "PaymentSend",
      "type": "event"
    },
    {
      "stateMutability": "payable",
      "type": "receive",
      "payable": true
    },
    {
      "inputs": [
        {
          "internalType": "address",
          "name": "accountAddress",
          "type": "address"
        },
        {
          "internalType": "uint128",
          "name": "shareAmount",
          "type": "uint128"
        }
      ],
      "name": "addCompany",
      "outputs": [],
      "stateMutability": "nonpayable",
      "type": "function"
    },
    {
      "inputs": [],
      "name": "totalPaidAmount",
      "outputs": [
        {
          "internalType": "uint128",
          "name": "",
          "type": "uint128"
        }
      ],
      "stateMutability": "view",
      "type": "function",
      "constant": true
    },
    {
      "inputs": [
        {
          "internalType": "address",
          "name": "companyAddress",
          "type": "address"
        }
      ],
      "name": "alreadyReceived",
      "outputs": [
        {
          "internalType": "uint128",
          "name": "",
          "type": "uint128"
        }
      ],
      "stateMutability": "view",
      "type": "function",
      "constant": true
    },
    {
      "inputs": [
        {
          "internalType": "address",
          "name": "companyAccount",
          "type": "address"
        }
      ],
      "name": "payableAmount",
      "outputs": [
        {
          "internalType": "uint128",
          "name": "",
          "type": "uint128"
        }
      ],
      "stateMutability": "view",
      "type": "function",
      "constant": true
    },
    {
      "inputs": [
        {
          "internalType": "address payable",
          "name": "companyAccount",
          "type": "address"
        }
      ],
      "name": "sendCompanyAmount",
      "outputs": [],
      "stateMutability": "nonpayable",
      "type": "function"
    },
    {
      "inputs": [],
      "name": "totalShareAmounts",
      "outputs": [
        {
          "internalType": "uint128",
          "name": "",
          "type": "uint128"
        }
      ],
      "stateMutability": "view",
      "type": "function",
      "constant": true
    },
    {
      "inputs": [],
      "name": "payAll",
      "outputs": [],
      "stateMutability": "nonpayable",
      "type": "function"
    }
  ],
  "bytecode": "0x608060405260008060006101000a8154816fffffffffffffffffffffffffffffffff02191690836fffffffffffffffffffffffffffffffff16021790555060008060106101000a8154816fffffffffffffffffffffffffffffffff02191690836fffffffffffffffffffffffffffffffff160217905550611023806100856000396000f3fe6080604052600436106100745760003560e01c80637186d8871161004e5780637186d8871461013d578063a5ce3eb01461017a578063ac918485146101a5578063c79e9117146101ce576100bb565b80632265ae6d146100c057806327109641146100e95780635806beaf14610126576100bb565b366100bb577f017754cad17d751fe82b3504d7c91b3d96de02d5e3a50b333a0306493490d27d6100a26101f9565b346040516100b192919061098a565b60405180910390a1005b600080fd5b3480156100cc57600080fd5b506100e760048036038101906100e291906109f6565b610201565b005b3480156100f557600080fd5b50610110600480360381019061010b9190610a4f565b610413565b60405161011d9190610a7c565b60405180910390f35b34801561013257600080fd5b5061013b610478565b005b34801561014957600080fd5b50610164600480360381019061015f9190610a4f565b61053e565b6040516101719190610a7c565b60405180910390f35b34801561018657600080fd5b5061018f6105a3565b60405161019c9190610a7c565b60405180910390f35b3480156101b157600080fd5b506101cc60048036038101906101c79190610ac3565b6105c8565b005b3480156101da57600080fd5b506101e3610805565b6040516101f09190610a7c565b60405180910390f35b600033905090565b600061020c8261053e565b90506000816fffffffffffffffffffffffffffffffff161415610266577ffb7085a887c987ec4fc2d4b38a081907c13e4afaf0a3137c27e575e0eb149001826040516102589190610bbf565b60405180910390a150610410565b80600060108282829054906101000a90046fffffffffffffffffffffffffffffffff166102939190610c1c565b92506101000a8154816fffffffffffffffffffffffffffffffff02191690836fffffffffffffffffffffffffffffffff16021790555080600260008473ffffffffffffffffffffffffffffffffffffffff1673ffffffffffffffffffffffffffffffffffffffff16815260200190815260200160002060008282829054906101000a90046fffffffffffffffffffffffffffffffff160192506101000a8154816fffffffffffffffffffffffffffffffff02191690836fffffffffffffffffffffffffffffffff160217905550806000808282829054906101000a90046fffffffffffffffffffffffffffffffff160392506101000a8154816fffffffffffffffffffffffffffffffff02191690836fffffffffffffffffffffffffffffffff1602179055506103d582826fffffffffffffffffffffffffffffffff1661082a565b7f67e342873468c5e42a5cbf68154991fe99d0cec8a690ee582b9effbbc3fb161b8282604051610406929190610c62565b60405180910390a1505b50565b6000600260008373ffffffffffffffffffffffffffffffffffffffff1673ffffffffffffffffffffffffffffffffffffffff16815260200190815260200160002060009054906101000a90046fffffffffffffffffffffffffffffffff169050919050565b60005b600380549050816fffffffffffffffffffffffffffffffff161015610506576104f36003826fffffffffffffffffffffffffffffffff16815481106104c3576104c2610c8b565b5b9060005260206000200160009054906101000a900473ffffffffffffffffffffffffffffffffffffffff16610201565b80806104fe90610cba565b91505061047b565b507f5c330c20847b64d548e7e44ec6f9d7f414005e4e46747253b35b6d25064e03bb60405161053490610d3f565b60405180910390a1565b6000600160008373ffffffffffffffffffffffffffffffffffffffff1673ffffffffffffffffffffffffffffffffffffffff16815260200190815260200160002060009054906101000a90046fffffffffffffffffffffffffffffffff169050919050565b60008060109054906101000a90046fffffffffffffffffffffffffffffffff16905090565b600073ffffffffffffffffffffffffffffffffffffffff168273ffffffffffffffffffffffffffffffffffffffff161415610638576040517f08c379a000000000000000000000000000000000000000000000000000000000815260040161062f90610dd1565b60405180910390fd5b6000816fffffffffffffffffffffffffffffffff161161068d576040517f08c379a000000000000000000000000000000000000000000000000000000000815260040161068490610e63565b60405180910390fd5b80600160008473ffffffffffffffffffffffffffffffffffffffff1673ffffffffffffffffffffffffffffffffffffffff16815260200190815260200160002060006101000a8154816fffffffffffffffffffffffffffffffff02191690836fffffffffffffffffffffffffffffffff1602179055506003829080600181540180825580915050600190039060005260206000200160009091909190916101000a81548173ffffffffffffffffffffffffffffffffffffffff021916908373ffffffffffffffffffffffffffffffffffffffff160217905550806000808282829054906101000a90046fffffffffffffffffffffffffffffffff166107929190610c1c565b92506101000a8154816fffffffffffffffffffffffffffffffff02191690836fffffffffffffffffffffffffffffffff1602179055507f12675d64172d35101b6badb83ebbef65d3bcc962577b4c2710064a303b3aa53e82826040516107f992919061098a565b60405180910390a15050565b60008060009054906101000a90046fffffffffffffffffffffffffffffffff16905090565b8047101561086d576040517f08c379a000000000000000000000000000000000000000000000000000000000815260040161086490610ef5565b60405180910390fd5b60008273ffffffffffffffffffffffffffffffffffffffff168260405161089390610f46565b60006040518083038185875af1925050503d80600081146108d0576040519150601f19603f3d011682016040523d82523d6000602084013e6108d5565b606091505b5050905080610919576040517f08c379a000000000000000000000000000000000000000000000000000000000815260040161091090610fcd565b60405180910390fd5b505050565b600073ffffffffffffffffffffffffffffffffffffffff82169050919050565b60006109498261091e565b9050919050565b6109598161093e565b82525050565b60006fffffffffffffffffffffffffffffffff82169050919050565b6109848161095f565b82525050565b600060408201905061099f6000830185610950565b6109ac602083018461097b565b9392505050565b600080fd5b60006109c38261091e565b9050919050565b6109d3816109b8565b81146109de57600080fd5b50565b6000813590506109f0816109ca565b92915050565b600060208284031215610a0c57610a0b6109b3565b5b6000610a1a848285016109e1565b91505092915050565b610a2c8161093e565b8114610a3757600080fd5b50565b600081359050610a4981610a23565b92915050565b600060208284031215610a6557610a646109b3565b5b6000610a7384828501610a3a565b91505092915050565b6000602082019050610a91600083018461097b565b92915050565b610aa08161095f565b8114610aab57600080fd5b50565b600081359050610abd81610a97565b92915050565b60008060408385031215610ada57610ad96109b3565b5b6000610ae885828601610a3a565b9250506020610af985828601610aae565b9150509250929050565b6000819050919050565b6000610b28610b23610b1e8461091e565b610b03565b61091e565b9050919050565b6000610b3a82610b0d565b9050919050565b6000610b4c82610b2f565b9050919050565b610b5c81610b41565b82525050565b600082825260208201905092915050565b7f5061796d656e7420616c726561647920646f6e65000000000000000000000000600082015250565b6000610ba9601483610b62565b9150610bb482610b73565b602082019050919050565b6000604082019050610bd46000830184610b53565b8181036020830152610be581610b9c565b905092915050565b7f4e487b7100000000000000000000000000000000000000000000000000000000600052601160045260246000fd5b6000610c278261095f565b9150610c328361095f565b9250826fffffffffffffffffffffffffffffffff03821115610c5757610c56610bed565b5b828201905092915050565b6000604082019050610c776000830185610b53565b610c84602083018461097b565b9392505050565b7f4e487b7100000000000000000000000000000000000000000000000000000000600052603260045260246000fd5b6000610cc58261095f565b91506fffffffffffffffffffffffffffffffff821415610ce857610ce7610bed565b5b600182019050919050565b7f5061796d656e7420746f20616c6c20636f6d70616e69657320646f6e652e0000600082015250565b6000610d29601e83610b62565b9150610d3482610cf3565b602082019050919050565b60006020820190508181036000830152610d5881610d1c565b9050919050565b7f5061796d656e7453706c6974746572436f6e7472616374203a20506c6561736560008201527f20656e746572206e6f6e207a65726f20616464726573732e0000000000000000602082015250565b6000610dbb603883610b62565b9150610dc682610d5f565b604082019050919050565b60006020820190508181036000830152610dea81610dae565b9050919050565b7f5061796d656e7453706c6974746572436f6e7472616374203a2020506c65617360008201527f6520656e74657220706f73697469766520736861726520616d6f756e74000000602082015250565b6000610e4d603d83610b62565b9150610e5882610df1565b604082019050919050565b60006020820190508181036000830152610e7c81610e40565b9050919050565b7f416464726573733a20496e73756666696369656e742062616c616e636520696e60008201527f206163636f756e74000000000000000000000000000000000000000000000000602082015250565b6000610edf602883610b62565b9150610eea82610e83565b604082019050919050565b60006020820190508181036000830152610f0e81610ed2565b9050919050565b600081905092915050565b50565b6000610f30600083610f15565b9150610f3b82610f20565b600082019050919050565b6000610f5182610f23565b9150819050919050565b7f416464726573733a2043616e27742073656e6420616d6f756e7420746f20757360008201527f6572000000000000000000000000000000000000000000000000000000000000602082015250565b6000610fb7602283610b62565b9150610fc282610f5b565b604082019050919050565b60006020820190508181036000830152610fe681610faa565b905091905056fea2646970667358221220210937cae971b45b8bce8feae40d940944cca23673d3fd2990df3868b537a74064736f6c634300080a0033",
  "immutableReferences": {},
  "source": "// SPDX-License-Identifier: MIT\r\n\r\npragma solidity ^0.8.0;\r\n\r\nimport \"./userContext.sol\";\r\nimport \"./userAddress.sol\";\r\n\r\ncontract PaymentSplitterContract is UserContext {\r\n    /* \r\n        Step - 1\r\n        Define some important variables \r\n    */\r\n    // Define total amount involved in Payment-Splitter\r\n    uint128 totalShareAmount;\r\n\r\n    // Define total payment done using Payment-Splitter\r\n    uint128 totalPaid;\r\n\r\n    // Define companyShare map for mapping address to uint128 (for every company account address map to some share )\r\n    mapping(address => uint128) companyShare;\r\n\r\n    // Define companyReceivedAmount for find payment received by company (initially it is 0)\r\n    mapping(address => uint128) companyReceivedAmount;\r\n\r\n    // Define array for store all company address\r\n    address[] private companies;\r\n\r\n    /* \r\n        Step - 2 \r\n        Define functions and event for add company in contract \r\n    */\r\n    // Define event for add company\r\n    event CompanyAdded(address account, uint128 share);\r\n\r\n    // Define function for add company which are involved with our contract\r\n    function addCompany(address accountAddress, uint128 shareAmount) public {\r\n        require(\r\n            accountAddress != address(0),\r\n            \"PaymentSplitterContract : Please enter non zero address.\"\r\n        );\r\n        require(\r\n            shareAmount > 0,\r\n            \"PaymentSplitterContract :  Please enter positive share amount\"\r\n        );\r\n\r\n        companyShare[accountAddress] = shareAmount;\r\n        companies.push(accountAddress);\r\n        totalShareAmount += shareAmount;\r\n        emit CompanyAdded(accountAddress, shareAmount);\r\n    }\r\n\r\n    // // Define constructor for contract\r\n    constructor() public payable {\r\n        totalShareAmount = 0;\r\n        totalPaid = 0;\r\n    }\r\n\r\n    /* \r\n        Step - 3\r\n        Define functions for send payment to company \r\n    */\r\n    // Define function for find total paid amount by this contract\r\n    function totalPaidAmount() public view returns (uint128) {\r\n        return totalPaid;\r\n    }\r\n\r\n    // Define function for find amount already received by company\r\n    function alreadyReceived(\r\n        address companyAddress\r\n    ) public view returns (uint128) {\r\n        return companyReceivedAmount[companyAddress];\r\n    }\r\n\r\n    // Define function for find total amount company can get\r\n    function payableAmount(\r\n        address companyAccount\r\n    ) public view returns (uint128) {\r\n        return companyShare[companyAccount];\r\n    }\r\n\r\n    // Define event for send payment\r\n    event PaymentSend(address company, uint128 sendAmount);\r\n    event PaymentAlreadyDone(address companyAccount, string mes);\r\n\r\n    // function removeElement(address _element) private {\r\n    //     for (uint256 i; i < companies.length; i++) {\r\n    //         if (companies[i] == _element) {\r\n    //             companies[i] = companies[companies.length - 1];\r\n    //             companies.pop();\r\n    //             break;\r\n    //         }\r\n    //     }\r\n    // }\r\n\r\n    // Define function for send amount to company\r\n    function sendCompanyAmount(address payable companyAccount) public virtual {\r\n        uint128 possiblePayment = payableAmount(companyAccount);\r\n\r\n        if (possiblePayment == 0) {\r\n            emit PaymentAlreadyDone(companyAccount, \"Payment already done\");\r\n            return;\r\n        }\r\n\r\n        totalPaid += possiblePayment;\r\n        unchecked {\r\n            companyReceivedAmount[companyAccount] += possiblePayment;\r\n            totalShareAmount -= possiblePayment;\r\n        }\r\n\r\n        UserAddress.sendAmount(companyAccount, possiblePayment);\r\n        // removeElement(companyAccount);\r\n        emit PaymentSend(companyAccount, possiblePayment);\r\n    }\r\n\r\n    // Define event for user received amount\r\n    event PaymentGet(address from, uint128 amount);\r\n\r\n    // Define function for show event when user receive amount\r\n    receive() external payable virtual {\r\n        emit PaymentGet(msgSenderAddress(), uint128(msg.value));\r\n    }\r\n\r\n    // Define function for find total shares of companies\r\n    function totalShareAmounts() public view returns (uint128) {\r\n        return totalShareAmount;\r\n    }\r\n\r\n    /* \r\n        Step - 3\r\n        Define event and function for final payment to all companies \r\n    */\r\n    // Define event for payment done to all companies\r\n    event PaymentDone(string str);\r\n\r\n    // Define function for send amount to all companies\r\n    function payAll() public {\r\n        for (uint128 i = 0; i < companies.length; i++) {\r\n            sendCompanyAmount(payable(companies[i]));\r\n        }\r\n        emit PaymentDone(\"Payment to all companies done.\");\r\n    }\r\n}\r\n",
  "sourcePath": "D:\\Desktop\\My program files\\Semester-6\\SC-402\\Combine\\PaymentSplitter-Using-SmartContract\\contracts\\PaymentSplitterContract.sol",
  "compiler": {
    "name": "solc",
    "version": "0.8.10+commit.fc410830.Emscripten.clang"
  },
  "schemaVersion": "3.4.13",
  "updatedAt": "2023-04-26T16:43:16.496Z",
  "networkType": "ethereum",
  "devdoc": {
    "kind": "dev",
    "methods": {},
    "version": 1
  },
  "userdoc": {
    "kind": "user",
    "methods": {},
    "version": 1
  }
}